:02000000222EAE
:0E000600F201F101F001F801F30100300800F1
:100014007B15FB1F14280130F300F201F101F001FC
:08002400FA0DF20CFF30080098
:10002C00FB14FB1F2028FF30F300F200F100F0005E
:08003C00FA0DF20CFF30080080
:08004400FA1FF213003008005E
:10004C00193083120313FD00FD0B2A280000000059
:02005C0008009A
:10005E00103083120313FD00FD0B3328000008003F
:10006E007B14FB1F4228F201FA1FFF30F200F10051
:0A007E00F000FA0DF20CFF3008004C
:100088007C187A28FC184B287C1999284428A60142
:100098007208031D6B287108F2007008F1007808D7
:1000A800F000F801A6157208031D6B287108F2000C
:1000B8007008F100F001A61126167208031D6B28BE
:1000C8007108F200F101A615720803198D28260897
:1000D800F302031D031C91280310F21B7A28F80D64
:1000E800F00DF10DF20DF30B712891287B1B701C9C
:1000F8009528F81F9528F00A0319F10A0319F20A3E
:10010800031D9528F20CF10CF00CF30A0319992839
:1001180095280130FC0003209C280230FC000A20AE
:100128009C280430FC0022209C280830FC00162063
:0401380000000800BB
:04013C0000000800B7
:10014000A6017208031DB5287108F2007008F100BD
:10015000F001A6157208031DB5287108F200F1011F
:10016000A611261672080319C3282608F302031DD8
:10017000031CC7280310F21BCB28F00DF10DF20D64
:10018000F30BBB28C7280130FC000320CE28023027
:0E019000FC000A20CE280430FC0022200800CB
:10019E0083120313F8010830FC00700DF80D74087B
:1001AE00F8020318DC28F8070310F00DFC0BD42816
:0201BE00080037
:1001C000A53083120313FD00FD0BE428000000009E
:0201D000080025
:0E01D2008312031328088A0027088200080001
:1001E00083120313FB01FA01F9018030F800F10CCE
:1001F000F00C031C04297408F90775080318750F1F
:10020000FA070318FB0A0310F01F0C297408FA07F9
:1002100075080318750FFB07FB0CFA0CF90CF80CAA
:10022000031CF7287B08F3007A08F2007908F10034
:060230007808F000080050
:1002360083120313AE012D08093C03183D290A3029
:10024600F4002D08F000CF207008AE007008AE0054
:10025600AE0D2E10AE0D2E10AE0D2E10AE0D2E10B4
:100266000A30F4002D08F000CF207808F00070085E
:0E027600AE043F292D08AE002E08F00008004F
:1002840083120313FA017308031D7A147708031DFC
:10029400FA147A0803198E29033A031959297A188A
:1002A4005629F61F8C298A29F21F8A298C2972085B
:1002B4008039FA00F21376088039F6137A060319A6
:1002C40067297A0803198A298C2977087302031984
:1002D4006E29031C8229862976087202031975295E
:1002E400031C822986297508710203197C29031CC1
:1002F400822986297408700203198E290318862915
:10030400FA0803198C298A29FA0803198A298C29DD
:100314000314080003100800031403150800080060
:10032400831203132E08F1000130F0007108031941
:100334009F29F00D7010FF3E99297008B000F00954
:100344002D08840070088005841770088005E0205B
:10035400300880048413262030080005AF002F08DD
:10036400003A013003190030AF00E0202F08F000FC
:0203740008007F
:1003760083120313FB0173080319F8297208FA00A4
:10038600F2178E30F302F31FFB29F309F30A083044
:100396007302031CDE29F300F10D7208F100F2016D
:1003A60008307302031CDE29F300F10DF101730816
:1003B600031D0310E62973080319E6290310F20C3E
:1003C600F10CF30BE1297B1B711CF029031CF029AE
:1003D600F10A0319F20AF21B072AFA1F0A2AF2097E
:1003E600F109F10A0319F20A0A2AF201F1010A2AAD
:1003F6007B14FB1F0D2AF201FA1F0D2AFF30F200B3
:10040600F100FA0DF20C0D2A0130FC000F2A003023
:10041600FC000F2AFF30FC00FC080319132A3720C2
:0A0426007108F0007208F1000800F0
:10043000831203132E08F1000130F0007108031934
:10044000252AF00D7010FF3E1F2A7008C200F00927
:100450007008B1002D088400700880058417B00171
:100460003008073C031C4A2A3008F0002F08F1002E
:10047000700803193F2AF10CF113FF3E392A3108A5
:100480008005711C452A4208800426204208800409
:0C049000B00A302A84132F202F2008000F
:10049C00831203137008F8007108F000F101F201E7
:1004AC00F301FB01FC019630F300FA01F01F642A02
:1004BC00F809F009F80A0319F00AFA177008F100A4
:0C04CC007808F000F801F201A020080000
:1004D80083120313FB017308031D77080319C32A4A
:1004E80072087606FA007708F3077E30031C802A24
:1004F800F3020318C62A832AF302031CC92A7208C6
:10050800F8007108FC007008FD00F817F6170310D2
:10051800F201F101F0011830A6007D1C9D2A740833
:10052800F00775080318750FF10776080318760F9A
:10053800F207F20CF10CF00CF80CFC0CFD0C03109B
:10054800A60B912AF21BAD2AF80DF00DF10DF20D54
:10055800F3037B1B701CBF2AF81FBF2AF00A03197C
:10056800F10A0319F20A031DBF2AF20CF10CF00C70
:10057800F30A0319C62AFA1FF2130030CB2A0130F6
:100588000320CB2A02301620CB2A04300A20000090
:02059800080059
:10059A008312031372087606A600F801F90173089C
:1005AA007702031CF02A7708FD007308F7007D081C
:1005BA00F3007608FD007208F6007D08F20075085F
:1005CA00FD007108F5007D08F1007408FD0070084F
:1005DA00F4007D08F00077080319692B7208FA0005
:1005EA00F217F61777087302F7000319232B08305E
:1005FA007702031C192BF7007408F9007508F40038
:10060A007608F500F60108307702031C192BF7006B
:10061A007408F9007508F400F50108307702031C24
:10062A00192B7A08F200692B77080319232B031078
:10063A00F60CF50CF40CF90CF70B1C2BA61F302B3F
:10064A00F909F409F509F609F90A0319F40A03196B
:10065A00F50A0319F60A7908F80774080318740FDB
:10066A00F00775080318750FF10776080318760F57
:10067A00F207A61B492B031C592BF20CF10CF00CA8
:10068A00F80CF30F592B652B03185D2BF809F009A9
:10069A00F109F209F80A0319F00A0319F10A031910
:1006AA00F20A8030FA06612B0130FC0044206B2BE1
:1006BA000230FC0044206B2B0430FC00A0206B2B82
:1006CA000830FC0016206B2B0030FC0000000800EC
:1006DA00831203132E08F1000130F0007108031988
:1006EA007A2BF00D7010FF3E742B7008C20070094F
:1006FA00B1002D088400B001AF012F08073C031C8C
:10070A00A62B310880058417310880059E204208EF
:10071A0080049E20841342080005F0000319A22BCE
:10072A002F08F1000130F00071080319A02BF00D19
:10073A007010FF3E9A2B7008B0042F202F20AF0AAA
:08074A00822B3008F0000800CA
:10075200063083120313AD00AE0192210630AD00C4
:10076200AE01CC30AF0018220630AD00AE014E30E3
:10077200AF0018220630AD00AE011F30AF001822C4
:100782000630AD00AE0192210630AD00AE01CC3094
:10079200AF0018220630AD00AE014430AF0018227F
:1007A2009C30FC00D730FD00FD0BD52BFC0BD52B6C
:1007B2000630AD00AE0192210630AD00AE01CC3064
:1007C200AF0018220630AD00AE01BE30AF001822D5
:1007D2000630AD00AE016D237008EC00ED0106306D
:1007E200AD00AE016D237008F200F1017108EC0753
:1007F20072080318013EED07ED0CEC0CED13ED0C45
:10080200EC0CED13ED0CEC0CED13ED0CEC0CED130C
:020812000800DC
:10081400823083120313FC00DD30FD00FD0B102C2D
:0A082400FC0B102C0000000008007F
:10082E008312031329087E3A031D222CBF30850044
:10083E0011308700A72C80302906F0008030643AF2
:10084E00700203182D2CFF30EE00312C7F30EE009D
:10085E006430A9022908AD001B217008EF000F308B
:10086E007005F1000030F2008530F10706300318F4
:10087E00013EF2077108A7007208A800E9208A114C
:10088E000A12F1006E0871058500F0307005F20055
:10089E007208F000F00CF013F00CF013F00CF013E3
:1008AE00F00CF0130030F1008530F007063003181D
:1008BE00013EF1077008A7007108A800E9208A110F
:1008CE000A12F0007008EE00FF30EF0001307005E4
:1008DE00F1007108003A031D752C6F1002306E0581
:1008EE00F1007108003A031D7D2CEF1004306E05E7
:1008FE00F1007108003A031D852CEF1108306E05CA
:10090E00F1007108003A031D8D2C6F1210306E0528
:10091E00F1007108003A031D952CEF1220306E0580
:10092E00F1007108003A031D9D2C6F1340306E05C7
:10093E00F1007108003A031DA52CEF136F08870014
:02094E0008009F
:1009500083120313290803178D0083168C130C14BC
:0809600083120C08F0000800EE
:0E09680083120313A201A301A401A50108003C
:0C0976008312031395011712971208005A
:10098200831603131208013EF000F1010318F10A65
:1009920083122908F400F501F0200630F2007008F5
:1009A200F4007108F50072080319DC2CF50CF40C44
:1009B200F513FF3ED52C0430F1007408F0007108E5
:1009C2000319E72CF00D7010FF3EE12C303070055A
:1009D200F3007408F0007508F100F10CF00CF1134B
:1009E200F10CF00CF113700895000F3097057308A5
:0409F200970408005E
:1009F600831203132B082902F0002C08031C013E66
:100A06002A02F1004E227008BA007108BB00720873
:100A1600BC007308BD007008F4007108F500720888
:100A2600F6007308F7003208F0003308F1003408C6
:100A3600F2003508F3004221013003180030F000BF
:100A4600700803192F2D3208BE003308BF00340882
:100A5600C0003508C100712D00303206F4000030A8
:100A66003306F50080303406F60000303506F70010
:100A76003A08F0003B08F1003C08F2003D08F3009C
:100A86004221013003180030F00070080319582D78
:100A960000303206BE0000303306BF008030340618
:100AA600C00000303506C100712D0030F000003066
:100AB600F1002030F2008330F3003A08F4003B08DE
:100AC600F5003C08F6003D08F7006C227008BE00F1
:100AD6007108BF007208C0007308C1002208F00048
:100AE6002308F1002408F2002508F3003A08F40070
:100AF6003B08F5003C08F6003D08F700CD227008DB
:100B0600CA007108CB007208CC007308CD007008CB
:100B1600F4007108F5007208F6007308F70036084D
:100B2600F0003708F1003808F2003908F3004221D6
:100B3600013003180030F00070080319AB2D360899
:100B4600A2003708A3003808A4003908A500DC2D48
:100B560000303606F40000303706F50080303806DF
:100B6600F60000303906F7004A08F0004B08F1009D
:100B76004C08F2004D08F300422101300318003002
:100B8600F00070080319D42D00303606A20000309C
:100B96003706A30080303806A40000303906A500C9
:100BA600DC2D4A08A2004B08A3004C08A4004D08FF
:100BB600A5002B08A0002C08A1003E08F0003F0865
:100BC600F1004008F2004108F300BB217008CE0096
:100BD6007108CF008030F200803071067202031D6A
:100BE600F62D7008FD3C0318FC2DFD30CE00CF011C
:100BF6000B2E8030F00080304F067002031D052E4C
:100C06004E08033C031C0B2E0330CE000030CF00F1
:060C16004E08F00008008A
:100C1C00831603130711831212150C309704080066
:100C2C00E9208A110A128000840AA70A0319A80A6B
:080C3C00F003031D162E080051
:100C4400023083120313B2006C30B3003730B400A7
:100C5400F930B5000230B6006C30B7003730B80058
:100C6400F930B900683083168F000B3083120317F4
:100C7400850083168801890103138501C03086002D
:100C84008701831212109210313083169200BB2414
:100C94000530A900C1240E26A001A101B424A90194
:100CA400A82470080313E80064000630AD00AE0108
:100CB40092217008013A031D652E64007E30A9005C
:100CC40017240A24562EA92364006C08A9001724AB
:100CD4006808A900AA016C08AB006D08AC00FB24ED
:100CE4007008E9007008A900C1240530FB000F302A
:100CF400FC00F130FD00FD0B7D2EFC0B7D2EFB0B6B
:060D04007D2E562E842E08
:100D0A00C034F934A434B034993492348234F83487
:040D1A00803490345D
:04400E00EC23000798
:020000040000FA
:104200006E00FF00FF00FF00FF00FF00FF00FF0047
:10421000FF00FF00FF00FF00FF00FF00FF00FF00A6
:10422000FF00FF00FF00FF00FF00FF00FF00FF0096
:10423000FF00FF00FF00FF00FF00FF00FF00FF0086
:10424000FF00FF00FF00FF00FF00FF00FF00FF0076
:10425000FF00FF00FF00FF00FF00FF00FF00FF0066
:10426000FF00FF00FF00FF00FF00FF00FF00FF0056
:10427000FF00FF00FF00FF00FF00FF00FF00FF0046
:10428000FF00FF00FF00FF00FF00FF00FF00FF0036
:10429000FF00FF00FF00FF00FF00FF00FF00FF0026
:1042A000FF00FF00FF00FF00FF00FF00FF00FF0016
:1042B000FF00FF00FF00FF00FF00FF00FF00FF0006
:1042C000FF00FF00FF00FF00FF00FF00FF00FF00F6
:1042D000FF00FF00FF00FF00FF00FF00FF00FF00E6
:1042E000FF00FF00FF00FF00FF00FF00FF00FF00D6
:1042F000FF00FF00FF00FF00FF00FF00FF00FF00C6
:00000001FF

