:1000000012C022C021C020C01FC01EC01DC01CC005
:100010001BC01AC019C018C017C016C015C014C024
:1000200013C012C011C011241FBECFEDCDBF10E010
:10003000A0E6B0E0EAEBF4E002C005900D92A6372E
:10004000B107D9F711D237C2DBCF613051F4842F19
:10005000807F886088BB807F88BB81E28A95F1F7CA
:1000600008956623B1F4982F990F292F2860842FC3
:10007000807F822B88BB807F892B88BB842F8295D1
:10008000807F822B88BB807F892B88BB81E28A9509
:10009000F1F708950F931F9308E813E1C801019742
:1000A000F1F780E061E043E0D0DF80E061E043E031
:1000B000CCDF80E061E043E0C8DF80E061E042E067
:1000C000C4DF80E060E048E2C0DF80E060E048E05C
:1000D000BCDF80E060E041E0B8DFC8010197F1F7E4
:1000E00080E060E046E0B1DF80E060E04CE0ADDF62
:1000F0001F910F9108950F931F93CF93DF93062FB6
:10010000EC0110E005C081E060E049919EDF1F5FD7
:100110001017C8F3DF91CF911F910F910895FF92AF
:100120000F931F9323E0969587952A95E1F790FD0D
:1001300005C100E010E020E0FF2411C0F39431E09D
:100140003F1560F40F5F0A3040F01F5F1A3010F463
:1001500000E003C02F5F00E010E0FF24019700974C
:1001600069F72130C9F580E690E061E0C4DF112332
:1001700019F482E690E02DC0113019F480E690E089
:1001800028C0123019F484E690E023C0133019F42B
:1001900086E690E01EC0143019F488E690E019C09D
:1001A000153019F48AE690E014C0163019F48CE684
:1001B00090E00FC0173019F48EE690E00AC01830B6
:1001C00019F480E790E005C0193009F074C082E7A7
:1001D00090E061E090DF6FC0112309F46CC0113032
:1001E00019F480E690E027C0123019F484E690E01C
:1001F00022C0133019F486E690E01DC0143019F4C3
:1002000088E690E018C0153019F48AE690E013C033
:10021000163019F48CE690E00EC0173019F48EE613
:1002200090E009C0183019F480E790E004C019305C
:1002300021F482E790E061E05EDF002319F482E6BA
:1002400090E02CC0013019F480E690E027C0023025
:1002500019F484E690E022C0033019F486E690E0B9
:100260001DC0043019F488E690E018C0053019F478
:100270008AE690E013C0063019F48CE690E00EC0D8
:10028000073019F48EE690E009C0083019F480E7D1
:1002900090E004C0093021F482E790E061E02BDFB8
:1002A00084E790E061E027DFFF20F1F131E0F31611
:1002B00009F044C03FC0002319F482E690E02CC04E
:1002C000013019F480E690E027C0023019F484E68A
:1002D00090E022C0033019F486E690E01DC004309F
:1002E00019F488E690E018C0053019F48AE690E029
:1002F00013C0063019F48CE690E00EC0073019F4F4
:100300008EE690E009C0083019F480E790E004C060
:10031000093021F482E790E061E0EDDE84E790E0CF
:1003200061E0E9DEFF2019F482E690E005C081E09B
:10033000F81621F48AE690E061E0DDDE1F910F916E
:10034000FF900895882331F4B89A81E28A95F1F7F5
:10035000B8980895813029F4B89AB89881E28A95BE
:10036000F1F70895B89AB89882E08A95F1F786B3C4
:1003700091E29A95F1F790E080FD91E0892F089540
:10038000EF92FF920F931F93CF93DF93F82EE62EF9
:10039000B89A80EF90E0FC013197F1F7B898019797
:1003A000F1F700E01CEC10FF02C081E001C080E02A
:1003B000C9DF0F5F083011F01695F5CF88E893E19B
:1003C0000197F1F70F2D10E000FF02C081E001C09E
:1003D00080E0B8DF1F5F183011F00695F5CF88E890
:1003E00093E10197F1F78EE4F816B9F410E080E09C
:1003F000A9DF1F5F1031D9F710E0E0FE02C081E0F5
:1004000001C080E09FDF1F5F183011F0E694F5CF48
:1004100088E893E10197F1F720C08EEBF816E9F434
:1004200000E010E0C0E0D0E031E0E32EF12C9ADFF4
:10043000813049F4C7010C2E02C0880F991F0A941D
:10044000E2F7082B192B2196C031D10581F788E8F6
:1004500093E10197F1F7C80100C0DF91CF911F919F
:100460000F91FF90EF900895EF92FF920F931F93DB
:10047000CF93DF938EEF87BB18BA0CDE8EE46FE16B
:100480007FDF40E5E42E43ECF42EC8E8D3E184E4BA
:1004900060E076DFC7010197F1F78EEB60E070DF77
:1004A0008C0180E060E041E0D0DDCE010197F1F702
:0A04B000C80135DEECCFF894FFCF51
:1004BA003100300032003300340035003600370096
:0604CA00380039002C008F
:00000001FF
